:020000040000FA
:0400000065EF3CF07C
:1078CA00206A1F6A1E6A0001B9EF3CF0016E8B94B0
:1078DA008B928B8000F001C08CFF00F08B9012001D
:1078EA00340ED36E000E0F015D6F000E946E000E03
:1078FA005E6F000E956E9288000E956E1200026EF3
:10790A008B848B928B8002C08CFF00F000F08B90EE
:10791A00520E016E2A0EE82EFED7012EFCD7120057
:10792A00000E8B6E949094949492380E6BEC3CF00B
:10793A00520E026E2A0EE82EFED7022EFCD70F0E2A
:10794A006BEC3CF0520E026E2A0EE82EFED7022E87
:10795A00FCD7010E6BEC3CF0520E026E2A0EE82E9A
:10796A00FED7022EFCD7120075EC3CF08B948B925A
:10797A008B9095EC3CF0460E84EC3CF0720E84EC55
:10798A003CF0650E84EC3CF0710E84EC3CF0750E14
:10799A0084EC3CF0650E84EC3CF06E0E84EC3CF01A
:1079AA00630E84EC3CF0790E84EC3CF03A0E84ECE5
:1079BA003CF016EC3FF0C40E6BEC3CF0200E84EC6D
:1079CA003CF0480E84EC3CF07A0E84EC3CF016EC69
:1079DA003FF0ECEF3CF000EF00F0000E066E02BE46
:1079EA00FBEF3CF0F9EF3CF001EF3DF0016C021EB9
:1079FA00D8B0022A010E066E04BE08EF3DF006EF6B
:107A0A003DF00CEF3DF0036C041ED8B0042A03507D
:107A1A000410D8B413EF3DF015EF3DF039EF3DF007
:107A2A00010E056E1DEF3DF0D89003360436052A87
:107A3A0004AE22EF3DF024EF3DF019EF3DF0035084
:107A4A00015C04500258D8A02DEF3DF02FEF3DF015
:107A5A0033EF3DF00350015E0450025AD8900432CD
:107A6A000332052E24EF3DF00650D8B43FEF3DF027
:107A7A0041EF3DF045EF3DF0016C021ED8B0022AFD
:107A8A0001C001F002C002F01200000E066E04BE30
:107A9A0053EF3DF051EF3DF059EF3DF0036C041EFA
:107AAA00D8B0042A010E066E02BE60EF3DF05EEF0A
:107ABA003DF066EF3DF0016C021ED8B0022A010EBD
:107ACA00061A000E086E000E076E03500410D8B492
:107ADA0071EF3DF073EF3DF09BEF3DF0010E056E47
:107AEA007BEF3DF0D89003360436052A04AE80EFCA
:107AFA003DF082EF3DF077EF3DF0D890073608363B
:107B0A000350015C04500258D8A08EEF3DF090EF6C
:107B1A003DF095EF3DF00350015E0450025A078094
:107B2A00D89004320332052E82EF3DF00650D8B4C5
:107B3A00A1EF3DF0A3EF3DF0A7EF3DF0076C081E63
:107B4A00D8B0082A07C001F008C002F012000B5092
:107B5A000C10D8A4B3EF3DF0B5EF3DF0BDEF3DF00A
:107B6A0009C0D9FF0AC0DAFF300EDF6E5AEF3EF0C5
:107B7A00000E1A6E000E196E000E146E000E136EB1
:107B8A00000E106E000E0F6E0BC015F00CC016F032
:107B9A000CBED4EF3DF0D2EF3DF0F4EF3DF0000E15
:107BAA00146E010E136E0B5000080B6E0C50D8A009
:107BBA00E82A00080C6E194A1A2AF4EF3DF0194A0D
:107BCA001A2A15C001F016C002F0000E046E0A0E41
:107BDA00036E4AEC3DF001C015F002C016F01550D4
:107BEA001610D8A4FBEF3DF0FDEF3DF0E4EF3DF0B9
:107BFA00000E186E000E176E34EF3EF00BC001F047
:107C0A000CC002F0000E046E0A0E036EF2EC3CF099
:107C1A0001C011F002C012F00BC001F00CC002F05A
:107C2A00000E046E0A0E036E4AEC3DF001C00BF022
:107C3A0002C00CF01750095C0D6E18500A580E6EEF
:107C4A0019500D261A500E22FF0E0D24D96EFF0E62
:107C5A000E20DA6E1150300FDF6E174A182A1950AB
:107C6A00175C1850800A0D6E1A50800A0D58D8A059
:107C7A0041EF3EF043EF3EF003EF3EF01350141095
:107C8A00D8B44AEF3EF04CEF3EF052EF3EF009C056
:107C9A00D9FF0AC0DAFF2D0EDF6E19500924D96EFA
:107CAA001A500A20DA6E000EDF6E120001C00BF0C5
:107CBA0002C00CF005500610D8A466EF3EF068EF3B
:107CCA003EF06AEF3EF015EF3FF00BC0D9FF0CC053
:107CDA00DAFF03C0DFFF05500B24076E06500C20A5
:107CEA00086EFF0E0724D96EFF0E0820DA6E03C055
:107CFA00DFFF065007E1030E055CD8B087EF3EF0C0
:107D0A0089EF3EF08BEF3EF015EF3FF020EE01F0E9
:107D1A000B50D9260C50DA2203C0DFFF20EE02F006
:107D2A000B50D9260C50DA2203C0DFFF05500B2472
:107D3A00076E06500C20086EFE0E0724D96EFF0E41
:107D4A000820DA6E03C0DFFF05500B24076E0650C9
:107D5A000C20086EFD0E0724D96EFF0E0820DA6E7D
:107D6A0003C0DFFF065007E1070E055CD8B0C0EF7D
:107D7A003EF0C2EF3EF0C4EF3EF015EF3FF020EECA
:107D8A0003F00B50D9260C50DA2203C0DFFF05504E
:107D9A000B24076E06500C20086EFC0E0724D96EC1
:107DAA00FF0E0820DA6E03C0DFFF065007E1090E56
:107DBA00055CD8B0E3EF3EF0E5EF3EF0E7EF3EF0CA
:107DCA0015EF3FF00BC007F00CC008F0071E081EA5
:107DDA00074A082A030E0714096E0A6A09500B2675
:107DEA000A500C220950055E0A50065AFC0E051666
:107DFA00FF0E06160CEF3FF00BC0D9FF0CC0DAFFDE
:107E0A0003C0DFFF0506D8A006060B4A0C2A055058
:107E1A000610D8A413EF3FF015EF3FF001EF3FF043
:107E2A0012000B0ECF6EDC0ECE6ECC9E9E90210EF3
:107E3A00CD6E22EF3FF0F80ED56E9EA027EF3FF0F1
:107E4A0029EF3FF020EF3FF01E0E096E000E0A6E7A
:107E5A00D6CF0BF00C6AACEC3DF0C00E6BEC3CF0EC
:107E6A00000E1D6E000E1C6E1E0E1C24D96E000E16
:107E7A001D20DA6E300EDE18D8B446EF3FF048EF18
:107E8A003FF0CFEF3FF01E0E1C24D96E000E1D20CE
:107E9A00DA6E310EDE18D8B455EF3FF057EF3FF0E7
:107EAA00CFEF3FF01E0E1C24D96E000E1D20DA6E95
:107EBA00320EDE18D8B464EF3FF066EF3FF0CFEF32
:107ECA003FF01E0E1C24D96E000E1D20DA6E330EF2
:107EDA00DE18D8B473EF3FF075EF3FF0CFEF3FF005
:107EEA001E0E1C24D96E000E1D20DA6E340EDE180A
:107EFA00D8B482EF3FF084EF3FF0CFEF3FF01E0E91
:107F0A001C24D96E000E1D20DA6E350EDE18D8B488
:107F1A0091EF3FF093EF3FF0CFEF3FF01E0E1C249E
:107F2A00D96E000E1D20DA6E360EDE18D8B4A0EF18
:107F3A003FF0A2EF3FF0CFEF3FF01E0E1C24D96EA8
:107F4A00000E1D20DA6E370EDE18D8B4AFEF3FF000
:107F5A00B1EF3FF0CFEF3FF01E0E1C24D96E000E9A
:107F6A001D20DA6E380EDE18D8B4BEEF3FF0C0EF2F
:107F7A003FF0CFEF3FF01E0E1C24D96E000E1D20DD
:107F8A00DA6E390EDE18D8A4CDEF3FF0CFEF3FF00E
:107F9A00DAEF3FF01E0E1C24D96E000E1D20DA6E99
:107FAA00DF5084EC3CF0DDEF3FF0200E84EC3CF037
:107FBA001C4A1D2A1D5009E1030E1C5CD8A0E8EFDB
:107FCA003FF0EAEF3FF039EF3FF01E0E016E000E70
:107FDA00026E000E046E200E036E000E066E030E75
:107FEA00056E5BEC3EF0000ED56E000ECD6E9E90D7
:067FFA00000ED66E12001D
:020000040020DA
:08000000FFFFFFFFFFFFFFFF00
:020000040030CA
:0E00000000285F3CFFD385FF0FC00FE00F40CC
:00000001FF
